{
  "_format": "hh-sol-artifact-1",
  "contractName": "VideoCDN",
  "sourceName": "contracts/VideoCDN.sol",
  "abi": [
    {
      "anonymous": false,
      "inputs": [
        {
          "indexed": false,
          "internalType": "address",
          "name": "node",
          "type": "address"
        },
        {
          "indexed": false,
          "internalType": "uint256",
          "name": "amount",
          "type": "uint256"
        }
      ],
      "name": "EdgeNodePaid",
      "type": "event"
    },
    {
      "anonymous": false,
      "inputs": [
        {
          "indexed": false,
          "internalType": "address",
          "name": "node",
          "type": "address"
        }
      ],
      "name": "EdgeNodeRegistered",
      "type": "event"
    },
    {
      "anonymous": false,
      "inputs": [
        {
          "indexed": false,
          "internalType": "uint256",
          "name": "videoId",
          "type": "uint256"
        },
        {
          "indexed": false,
          "internalType": "address",
          "name": "buyer",
          "type": "address"
        }
      ],
      "name": "VideoPurchased",
      "type": "event"
    },
    {
      "anonymous": false,
      "inputs": [
        {
          "indexed": false,
          "internalType": "uint256",
          "name": "videoId",
          "type": "uint256"
        },
        {
          "indexed": false,
          "internalType": "address",
          "name": "owner",
          "type": "address"
        },
        {
          "indexed": false,
          "internalType": "string",
          "name": "ipfsHash",
          "type": "string"
        },
        {
          "indexed": false,
          "internalType": "uint256",
          "name": "price",
          "type": "uint256"
        }
      ],
      "name": "VideoUploaded",
      "type": "event"
    },
    {
      "inputs": [
        {
          "internalType": "uint256",
          "name": "_videoId",
          "type": "uint256"
        },
        {
          "internalType": "address",
          "name": "_edgeNode",
          "type": "address"
        }
      ],
      "name": "buyVideo",
      "outputs": [],
      "stateMutability": "payable",
      "type": "function"
    },
    {
      "inputs": [],
      "name": "edgeNodeReward",
      "outputs": [
        {
          "internalType": "uint256",
          "name": "",
          "type": "uint256"
        }
      ],
      "stateMutability": "view",
      "type": "function"
    },
    {
      "inputs": [
        {
          "internalType": "address",
          "name": "",
          "type": "address"
        }
      ],
      "name": "edgeNodes",
      "outputs": [
        {
          "internalType": "bool",
          "name": "isRegistered",
          "type": "bool"
        },
        {
          "internalType": "uint256",
          "name": "earnings",
          "type": "uint256"
        }
      ],
      "stateMutability": "view",
      "type": "function"
    },
    {
      "inputs": [],
      "name": "getVideos",
      "outputs": [
        {
          "components": [
            {
              "internalType": "address",
              "name": "owner",
              "type": "address"
            },
            {
              "internalType": "uint256",
              "name": "price",
              "type": "uint256"
            },
            {
              "internalType": "string",
              "name": "ipfsHash",
              "type": "string"
            },
            {
              "internalType": "string",
              "name": "title",
              "type": "string"
            },
            {
              "internalType": "string",
              "name": "subtitle",
              "type": "string"
            },
            {
              "internalType": "string",
              "name": "date",
              "type": "string"
            },
            {
              "internalType": "string[]",
              "name": "genres",
              "type": "string[]"
            },
            {
              "internalType": "string",
              "name": "image",
              "type": "string"
            },
            {
              "internalType": "string",
              "name": "trailer",
              "type": "string"
            }
          ],
          "internalType": "struct VideoCDN.Video[]",
          "name": "",
          "type": "tuple[]"
        }
      ],
      "stateMutability": "view",
      "type": "function"
    },
    {
      "inputs": [
        {
          "internalType": "address",
          "name": "",
          "type": "address"
        },
        {
          "internalType": "uint256",
          "name": "",
          "type": "uint256"
        }
      ],
      "name": "hasAccess",
      "outputs": [
        {
          "internalType": "bool",
          "name": "",
          "type": "bool"
        }
      ],
      "stateMutability": "view",
      "type": "function"
    },
    {
      "inputs": [],
      "name": "registerEdgeNode",
      "outputs": [],
      "stateMutability": "nonpayable",
      "type": "function"
    },
    {
      "inputs": [
        {
          "internalType": "uint256",
          "name": "_reward",
          "type": "uint256"
        }
      ],
      "name": "setEdgeNodeReward",
      "outputs": [],
      "stateMutability": "nonpayable",
      "type": "function"
    },
    {
      "inputs": [
        {
          "internalType": "string",
          "name": "_title",
          "type": "string"
        },
        {
          "internalType": "string",
          "name": "_subtitle",
          "type": "string"
        },
        {
          "internalType": "string",
          "name": "_date",
          "type": "string"
        },
        {
          "internalType": "string[]",
          "name": "_genres",
          "type": "string[]"
        },
        {
          "internalType": "string",
          "name": "_image",
          "type": "string"
        },
        {
          "internalType": "string",
          "name": "_ipfsHash",
          "type": "string"
        },
        {
          "internalType": "uint256",
          "name": "_price",
          "type": "uint256"
        },
        {
          "internalType": "string",
          "name": "_trailer",
          "type": "string"
        }
      ],
      "name": "uploadVideo",
      "outputs": [],
      "stateMutability": "nonpayable",
      "type": "function"
    },
    {
      "inputs": [],
      "name": "videoCount",
      "outputs": [
        {
          "internalType": "uint256",
          "name": "",
          "type": "uint256"
        }
      ],
      "stateMutability": "view",
      "type": "function"
    },
    {
      "inputs": [
        {
          "internalType": "uint256",
          "name": "",
          "type": "uint256"
        }
      ],
      "name": "videos",
      "outputs": [
        {
          "internalType": "address",
          "name": "owner",
          "type": "address"
        },
        {
          "internalType": "uint256",
          "name": "price",
          "type": "uint256"
        },
        {
          "internalType": "string",
          "name": "ipfsHash",
          "type": "string"
        },
        {
          "internalType": "string",
          "name": "title",
          "type": "string"
        },
        {
          "internalType": "string",
          "name": "subtitle",
          "type": "string"
        },
        {
          "internalType": "string",
          "name": "date",
          "type": "string"
        },
        {
          "internalType": "string",
          "name": "image",
          "type": "string"
        },
        {
          "internalType": "string",
          "name": "trailer",
          "type": "string"
        }
      ],
      "stateMutability": "view",
      "type": "function"
    },
    {
      "inputs": [],
      "name": "withdrawEarnings",
      "outputs": [],
      "stateMutability": "nonpayable",
      "type": "function"
    }
  ],
  "bytecode": "0x6080604052600a60045534801561001557600080fd5b5061271e806100256000396000f3fe60806040526004361061009b5760003560e01c8063c043ab3a11610064578063c043ab3a14610165578063c61b5f4c14610190578063c6530e41146101bb578063c905527a146101f8578063d0018def14610221578063e6821bf5146102385761009b565b8062d2a1bf146100a057806304c7b6e5146100bc578063681f9b9e146100fa57806368f2d16514610123578063b73c6ce91461014e575b600080fd5b6100ba60048036038101906100b591906115dd565b61027c565b005b3480156100c857600080fd5b506100e360048036038101906100de919061161d565b610633565b6040516100f1929190611674565b60405180910390f35b34801561010657600080fd5b50610121600480360381019061011c91906118c9565b610664565b005b34801561012f57600080fd5b50610138610825565b6040516101459190611d53565b60405180910390f35b34801561015a57600080fd5b50610163610d99565b005b34801561017157600080fd5b5061017a610eb5565b6040516101879190611d75565b60405180910390f35b34801561019c57600080fd5b506101a5610ebb565b6040516101b29190611d75565b60405180910390f35b3480156101c757600080fd5b506101e260048036038101906101dd9190611d90565b610ec1565b6040516101ef9190611dd0565b60405180910390f35b34801561020457600080fd5b5061021f600480360381019061021a9190611deb565b610ef0565b005b34801561022d57600080fd5b50610236610f3e565b005b34801561024457600080fd5b5061025f600480360381019061025a9190611deb565b611061565b604051610273989796959493929190611e71565b60405180910390f35b60008211801561028e57506003548211155b6102cd576040517f08c379a00000000000000000000000000000000000000000000000000000000081526004016102c490611f65565b60405180910390fd5b60008060008481526020019081526020016000209050806001015434101561032a576040517f08c379a000000000000000000000000000000000000000000000000000000000815260040161032190611fd1565b60405180910390fd5b600260003373ffffffffffffffffffffffffffffffffffffffff1673ffffffffffffffffffffffffffffffffffffffff168152602001908152602001600020600084815260200190815260200160002060009054906101000a900460ff16156103c8576040517f08c379a00000000000000000000000000000000000000000000000000000000081526004016103bf9061203d565b60405180910390fd5b6000606460045483600101546103de919061208c565b6103e891906120fd565b905060008183600101546103fc919061212e565b90508260000160009054906101000a900473ffffffffffffffffffffffffffffffffffffffff1673ffffffffffffffffffffffffffffffffffffffff166108fc829081150290604051600060405180830381858888f19350505050158015610468573d6000803e3d6000fd5b50600073ffffffffffffffffffffffffffffffffffffffff168473ffffffffffffffffffffffffffffffffffffffff16141580156104f25750600160008573ffffffffffffffffffffffffffffffffffffffff1673ffffffffffffffffffffffffffffffffffffffff16815260200190815260200160002060000160009054906101000a900460ff165b1561058a5781600160008673ffffffffffffffffffffffffffffffffffffffff1673ffffffffffffffffffffffffffffffffffffffff16815260200190815260200160002060010160008282546105499190612162565b925050819055507f04f9bb6617819e3f6de20aad9bb666a3a6536f88e72133dc9e756d4e498299508483604051610581929190612196565b60405180910390a15b6001600260003373ffffffffffffffffffffffffffffffffffffffff1673ffffffffffffffffffffffffffffffffffffffff168152602001908152602001600020600087815260200190815260200160002060006101000a81548160ff0219169083151502179055507f32f2dc5c3c0e9eb142bbcc40bd32c434827f83275b105946846a9f05cc69cdb885336040516106249291906121bf565b60405180910390a15050505050565b60016020528060005260406000206000915090508060000160009054906101000a900460ff16908060010154905082565b60036000815480929190610677906121e8565b91905055506040518061012001604052803373ffffffffffffffffffffffffffffffffffffffff16815260200183815260200184815260200189815260200188815260200187815260200186815260200185815260200182815250600080600354815260200190815260200160002060008201518160000160006101000a81548173ffffffffffffffffffffffffffffffffffffffff021916908373ffffffffffffffffffffffffffffffffffffffff16021790555060208201518160010155604082015181600201908161074c919061243c565b506060820151816003019081610762919061243c565b506080820151816004019081610778919061243c565b5060a082015181600501908161078e919061243c565b5060c08201518160060190805190602001906107ab9291906113f9565b5060e08201518160070190816107c1919061243c565b506101008201518160080190816107d8919061243c565b509050507f2bec37801fc5fd7683d5f119d3893073ca167a06e8fc68c931bb4552124804e1600354338585604051610813949392919061250e565b60405180910390a15050505050505050565b6060600060035467ffffffffffffffff811115610845576108446116b8565b5b60405190808252806020026020018201604052801561087e57816020015b61086b611452565b8152602001906001900390816108635790505b5090506000600190505b6003548111610d9157600080828152602001908152602001600020604051806101200160405290816000820160009054906101000a900473ffffffffffffffffffffffffffffffffffffffff1673ffffffffffffffffffffffffffffffffffffffff1673ffffffffffffffffffffffffffffffffffffffff1681526020016001820154815260200160028201805461091f9061225f565b80601f016020809104026020016040519081016040528092919081815260200182805461094b9061225f565b80156109985780601f1061096d57610100808354040283529160200191610998565b820191906000526020600020905b81548152906001019060200180831161097b57829003601f168201915b505050505081526020016003820180546109b19061225f565b80601f01602080910402602001604051908101604052809291908181526020018280546109dd9061225f565b8015610a2a5780601f106109ff57610100808354040283529160200191610a2a565b820191906000526020600020905b815481529060010190602001808311610a0d57829003601f168201915b50505050508152602001600482018054610a439061225f565b80601f0160208091040260200160405190810160405280929190818152602001828054610a6f9061225f565b8015610abc5780601f10610a9157610100808354040283529160200191610abc565b820191906000526020600020905b815481529060010190602001808311610a9f57829003601f168201915b50505050508152602001600582018054610ad59061225f565b80601f0160208091040260200160405190810160405280929190818152602001828054610b019061225f565b8015610b4e5780601f10610b2357610100808354040283529160200191610b4e565b820191906000526020600020905b815481529060010190602001808311610b3157829003601f168201915b5050505050815260200160068201805480602002602001604051908101604052809291908181526020016000905b82821015610c28578382906000526020600020018054610b9b9061225f565b80601f0160208091040260200160405190810160405280929190818152602001828054610bc79061225f565b8015610c145780601f10610be957610100808354040283529160200191610c14565b820191906000526020600020905b815481529060010190602001808311610bf757829003601f168201915b505050505081526020019060010190610b7c565b505050508152602001600782018054610c409061225f565b80601f0160208091040260200160405190810160405280929190818152602001828054610c6c9061225f565b8015610cb95780601f10610c8e57610100808354040283529160200191610cb9565b820191906000526020600020905b815481529060010190602001808311610c9c57829003601f168201915b50505050508152602001600882018054610cd29061225f565b80601f0160208091040260200160405190810160405280929190818152602001828054610cfe9061225f565b8015610d4b5780601f10610d2057610100808354040283529160200191610d4b565b820191906000526020600020905b815481529060010190602001808311610d2e57829003601f168201915b50505050508152505082600183610d62919061212e565b81518110610d7357610d7261255a565b5b60200260200101819052508080610d89906121e8565b915050610888565b508091505090565b6000600160003373ffffffffffffffffffffffffffffffffffffffff1673ffffffffffffffffffffffffffffffffffffffff16815260200190815260200160002060010154905060008111610e23576040517f08c379a0000000000000000000000000000000000000000000000000000000008152600401610e1a906125d5565b60405180910390fd5b6000600160003373ffffffffffffffffffffffffffffffffffffffff1673ffffffffffffffffffffffffffffffffffffffff168152602001908152602001600020600101819055503373ffffffffffffffffffffffffffffffffffffffff166108fc829081150290604051600060405180830381858888f19350505050158015610eb1573d6000803e3d6000fd5b5050565b60045481565b60035481565b60026020528160005260406000206020528060005260406000206000915091509054906101000a900460ff1681565b6032811115610f34576040517f08c379a0000000000000000000000000000000000000000000000000000000008152600401610f2b90612641565b60405180910390fd5b8060048190555050565b600160003373ffffffffffffffffffffffffffffffffffffffff1673ffffffffffffffffffffffffffffffffffffffff16815260200190815260200160002060000160009054906101000a900460ff1615610fce576040517f08c379a0000000000000000000000000000000000000000000000000000000008152600401610fc5906126ad565b60405180910390fd5b60018060003373ffffffffffffffffffffffffffffffffffffffff1673ffffffffffffffffffffffffffffffffffffffff16815260200190815260200160002060000160006101000a81548160ff0219169083151502179055507f5f09030b268bdcff0650d1d508db6a40b4886452a0da0f42af07f88ed0e113513360405161105791906126cd565b60405180910390a1565b60006020528060005260406000206000915090508060000160009054906101000a900473ffffffffffffffffffffffffffffffffffffffff16908060010154908060020180546110b09061225f565b80601f01602080910402602001604051908101604052809291908181526020018280546110dc9061225f565b80156111295780601f106110fe57610100808354040283529160200191611129565b820191906000526020600020905b81548152906001019060200180831161110c57829003601f168201915b50505050509080600301805461113e9061225f565b80601f016020809104026020016040519081016040528092919081815260200182805461116a9061225f565b80156111b75780601f1061118c576101008083540402835291602001916111b7565b820191906000526020600020905b81548152906001019060200180831161119a57829003601f168201915b5050505050908060040180546111cc9061225f565b80601f01602080910402602001604051908101604052809291908181526020018280546111f89061225f565b80156112455780601f1061121a57610100808354040283529160200191611245565b820191906000526020600020905b81548152906001019060200180831161122857829003601f168201915b50505050509080600501805461125a9061225f565b80601f01602080910402602001604051908101604052809291908181526020018280546112869061225f565b80156112d35780601f106112a8576101008083540402835291602001916112d3565b820191906000526020600020905b8154815290600101906020018083116112b657829003601f168201915b5050505050908060070180546112e89061225f565b80601f01602080910402602001604051908101604052809291908181526020018280546113149061225f565b80156113615780601f1061133657610100808354040283529160200191611361565b820191906000526020600020905b81548152906001019060200180831161134457829003601f168201915b5050505050908060080180546113769061225f565b80601f01602080910402602001604051908101604052809291908181526020018280546113a29061225f565b80156113ef5780601f106113c4576101008083540402835291602001916113ef565b820191906000526020600020905b8154815290600101906020018083116113d257829003601f168201915b5050505050905088565b828054828255906000526020600020908101928215611441579160200282015b82811115611440578251829081611430919061243c565b5091602001919060010190611419565b5b50905061144e91906114b4565b5090565b604051806101200160405280600073ffffffffffffffffffffffffffffffffffffffff16815260200160008152602001606081526020016060815260200160608152602001606081526020016060815260200160608152602001606081525090565b5b808211156114d457600081816114cb91906114d8565b506001016114b5565b5090565b5080546114e49061225f565b6000825580601f106114f65750611515565b601f0160209004906000526020600020908101906115149190611518565b5b50565b5b80821115611531576000816000905550600101611519565b5090565b6000604051905090565b600080fd5b600080fd5b6000819050919050565b61155c81611549565b811461156757600080fd5b50565b60008135905061157981611553565b92915050565b600073ffffffffffffffffffffffffffffffffffffffff82169050919050565b60006115aa8261157f565b9050919050565b6115ba8161159f565b81146115c557600080fd5b50565b6000813590506115d7816115b1565b92915050565b600080604083850312156115f4576115f361153f565b5b60006116028582860161156a565b9250506020611613858286016115c8565b9150509250929050565b6000602082840312156116335761163261153f565b5b6000611641848285016115c8565b91505092915050565b60008115159050919050565b61165f8161164a565b82525050565b61166e81611549565b82525050565b60006040820190506116896000830185611656565b6116966020830184611665565b9392505050565b600080fd5b600080fd5b6000601f19601f8301169050919050565b7f4e487b7100000000000000000000000000000000000000000000000000000000600052604160045260246000fd5b6116f0826116a7565b810181811067ffffffffffffffff8211171561170f5761170e6116b8565b5b80604052505050565b6000611722611535565b905061172e82826116e7565b919050565b600067ffffffffffffffff82111561174e5761174d6116b8565b5b611757826116a7565b9050602081019050919050565b82818337600083830152505050565b600061178661178184611733565b611718565b9050828152602081018484840111156117a2576117a16116a2565b5b6117ad848285611764565b509392505050565b600082601f8301126117ca576117c961169d565b5b81356117da848260208601611773565b91505092915050565b600067ffffffffffffffff8211156117fe576117fd6116b8565b5b602082029050602081019050919050565b600080fd5b6000611827611822846117e3565b611718565b9050808382526020820190506020840283018581111561184a5761184961180f565b5b835b8181101561189157803567ffffffffffffffff81111561186f5761186e61169d565b5b80860161187c89826117b5565b8552602085019450505060208101905061184c565b5050509392505050565b600082601f8301126118b0576118af61169d565b5b81356118c0848260208601611814565b91505092915050565b600080600080600080600080610100898b0312156118ea576118e961153f565b5b600089013567ffffffffffffffff81111561190857611907611544565b5b6119148b828c016117b5565b985050602089013567ffffffffffffffff81111561193557611934611544565b5b6119418b828c016117b5565b975050604089013567ffffffffffffffff81111561196257611961611544565b5b61196e8b828c016117b5565b965050606089013567ffffffffffffffff81111561198f5761198e611544565b5b61199b8b828c0161189b565b955050608089013567ffffffffffffffff8111156119bc576119bb611544565b5b6119c88b828c016117b5565b94505060a089013567ffffffffffffffff8111156119e9576119e8611544565b5b6119f58b828c016117b5565b93505060c0611a068b828c0161156a565b92505060e089013567ffffffffffffffff811115611a2757611a26611544565b5b611a338b828c016117b5565b9150509295985092959890939650565b600081519050919050565b600082825260208201905092915050565b6000819050602082019050919050565b611a788161159f565b82525050565b611a8781611549565b82525050565b600081519050919050565b600082825260208201905092915050565b60005b83811015611ac7578082015181840152602081019050611aac565b60008484015250505050565b6000611ade82611a8d565b611ae88185611a98565b9350611af8818560208601611aa9565b611b01816116a7565b840191505092915050565b600081519050919050565b600082825260208201905092915050565b6000819050602082019050919050565b6000611b448383611ad3565b905092915050565b6000602082019050919050565b6000611b6482611b0c565b611b6e8185611b17565b935083602082028501611b8085611b28565b8060005b85811015611bbc5784840389528151611b9d8582611b38565b9450611ba883611b4c565b925060208a01995050600181019050611b84565b50829750879550505050505092915050565b600061012083016000830151611be76000860182611a6f565b506020830151611bfa6020860182611a7e565b5060408301518482036040860152611c128282611ad3565b91505060608301518482036060860152611c2c8282611ad3565b91505060808301518482036080860152611c468282611ad3565b91505060a083015184820360a0860152611c608282611ad3565b91505060c083015184820360c0860152611c7a8282611b59565b91505060e083015184820360e0860152611c948282611ad3565b915050610100830151848203610100860152611cb08282611ad3565b9150508091505092915050565b6000611cc98383611bce565b905092915050565b6000602082019050919050565b6000611ce982611a43565b611cf38185611a4e565b935083602082028501611d0585611a5f565b8060005b85811015611d415784840389528151611d228582611cbd565b9450611d2d83611cd1565b925060208a01995050600181019050611d09565b50829750879550505050505092915050565b60006020820190508181036000830152611d6d8184611cde565b905092915050565b6000602082019050611d8a6000830184611665565b92915050565b60008060408385031215611da757611da661153f565b5b6000611db5858286016115c8565b9250506020611dc68582860161156a565b9150509250929050565b6000602082019050611de56000830184611656565b92915050565b600060208284031215611e0157611e0061153f565b5b6000611e0f8482850161156a565b91505092915050565b611e218161159f565b82525050565b600082825260208201905092915050565b6000611e4382611a8d565b611e4d8185611e27565b9350611e5d818560208601611aa9565b611e66816116a7565b840191505092915050565b600061010082019050611e87600083018b611e18565b611e94602083018a611665565b8181036040830152611ea68189611e38565b90508181036060830152611eba8188611e38565b90508181036080830152611ece8187611e38565b905081810360a0830152611ee28186611e38565b905081810360c0830152611ef68185611e38565b905081810360e0830152611f0a8184611e38565b90509998505050505050505050565b7f496e76616c696420766964656f20494400000000000000000000000000000000600082015250565b6000611f4f601083611e27565b9150611f5a82611f19565b602082019050919050565b60006020820190508181036000830152611f7e81611f42565b9050919050565b7f496e73756666696369656e74207061796d656e74000000000000000000000000600082015250565b6000611fbb601483611e27565b9150611fc682611f85565b602082019050919050565b60006020820190508181036000830152611fea81611fae565b9050919050565b7f416c726561647920707572636861736564000000000000000000000000000000600082015250565b6000612027601183611e27565b915061203282611ff1565b602082019050919050565b600060208201905081810360008301526120568161201a565b9050919050565b7f4e487b7100000000000000000000000000000000000000000000000000000000600052601160045260246000fd5b600061209782611549565b91506120a283611549565b92508282026120b081611549565b915082820484148315176120c7576120c661205d565b5b5092915050565b7f4e487b7100000000000000000000000000000000000000000000000000000000600052601260045260246000fd5b600061210882611549565b915061211383611549565b925082612123576121226120ce565b5b828204905092915050565b600061213982611549565b915061214483611549565b925082820390508181111561215c5761215b61205d565b5b92915050565b600061216d82611549565b915061217883611549565b92508282019050808211156121905761218f61205d565b5b92915050565b60006040820190506121ab6000830185611e18565b6121b86020830184611665565b9392505050565b60006040820190506121d46000830185611665565b6121e16020830184611e18565b9392505050565b60006121f382611549565b91507fffffffffffffffffffffffffffffffffffffffffffffffffffffffffffffffff82036122255761222461205d565b5b600182019050919050565b7f4e487b7100000000000000000000000000000000000000000000000000000000600052602260045260246000fd5b6000600282049050600182168061227757607f821691505b60208210810361228a57612289612230565b5b50919050565b60008190508160005260206000209050919050565b60006020601f8301049050919050565b600082821b905092915050565b6000600883026122f27fffffffffffffffffffffffffffffffffffffffffffffffffffffffffffffffff826122b5565b6122fc86836122b5565b95508019841693508086168417925050509392505050565b6000819050919050565b600061233961233461232f84611549565b612314565b611549565b9050919050565b6000819050919050565b6123538361231e565b61236761235f82612340565b8484546122c2565b825550505050565b600090565b61237c61236f565b61238781848461234a565b505050565b5b818110156123ab576123a0600082612374565b60018101905061238d565b5050565b601f8211156123f0576123c181612290565b6123ca846122a5565b810160208510156123d9578190505b6123ed6123e5856122a5565b83018261238c565b50505b505050565b600082821c905092915050565b6000612413600019846008026123f5565b1980831691505092915050565b600061242c8383612402565b9150826002028217905092915050565b61244582611a8d565b67ffffffffffffffff81111561245e5761245d6116b8565b5b612468825461225f565b6124738282856123af565b600060209050601f8311600181146124a65760008415612494578287015190505b61249e8582612420565b865550612506565b601f1984166124b486612290565b60005b828110156124dc578489015182556001820191506020850194506020810190506124b7565b868310156124f957848901516124f5601f891682612402565b8355505b6001600288020188555050505b505050505050565b60006080820190506125236000830187611665565b6125306020830186611e18565b81810360408301526125428185611e38565b90506125516060830184611665565b95945050505050565b7f4e487b7100000000000000000000000000000000000000000000000000000000600052603260045260246000fd5b7f4e6f206561726e696e677320746f207769746864726177000000000000000000600082015250565b60006125bf601783611e27565b91506125ca82612589565b602082019050919050565b600060208201905081810360008301526125ee816125b2565b9050919050565b7f546f6f2068696768207265776172640000000000000000000000000000000000600082015250565b600061262b600f83611e27565b9150612636826125f5565b602082019050919050565b6000602082019050818103600083015261265a8161261e565b9050919050565b7f416c726561647920726567697374657265640000000000000000000000000000600082015250565b6000612697601283611e27565b91506126a282612661565b602082019050919050565b600060208201905081810360008301526126c68161268a565b9050919050565b60006020820190506126e26000830184611e18565b9291505056fea26469706673582212202757e0091a5abb00f29360c3186f1676ecc9785b673cc890487e1375e24efb3f64736f6c63430008140033",
  "linkReferences": {},
  "deployedLinkReferences": {}
}