{
  "_format": "hh-sol-artifact-1",
  "contractName": "VideoCDN",
  "sourceName": "contracts/VideoCDN.sol",
  "abi": [
    {
      "anonymous": false,
      "inputs": [
        {
          "indexed": false,
          "internalType": "address",
          "name": "node",
          "type": "address"
        },
        {
          "indexed": false,
          "internalType": "uint256",
          "name": "amount",
          "type": "uint256"
        }
      ],
      "name": "EdgeNodePaid",
      "type": "event"
    },
    {
      "anonymous": false,
      "inputs": [
        {
          "indexed": false,
          "internalType": "address",
          "name": "node",
          "type": "address"
        }
      ],
      "name": "EdgeNodeRegistered",
      "type": "event"
    },
    {
      "anonymous": false,
      "inputs": [
        {
          "indexed": false,
          "internalType": "uint256",
          "name": "videoId",
          "type": "uint256"
        },
        {
          "indexed": false,
          "internalType": "address",
          "name": "buyer",
          "type": "address"
        }
      ],
      "name": "VideoPurchased",
      "type": "event"
    },
    {
      "anonymous": false,
      "inputs": [
        {
          "indexed": false,
          "internalType": "uint256",
          "name": "videoId",
          "type": "uint256"
        },
        {
          "indexed": false,
          "internalType": "address",
          "name": "owner",
          "type": "address"
        },
        {
          "indexed": false,
          "internalType": "string",
          "name": "ipfsHash",
          "type": "string"
        },
        {
          "indexed": false,
          "internalType": "uint256",
          "name": "price",
          "type": "uint256"
        }
      ],
      "name": "VideoUploaded",
      "type": "event"
    },
    {
      "inputs": [
        {
          "internalType": "uint256",
          "name": "_videoId",
          "type": "uint256"
        },
        {
          "internalType": "address",
          "name": "_edgeNode",
          "type": "address"
        }
      ],
      "name": "buyVideo",
      "outputs": [],
      "stateMutability": "payable",
      "type": "function"
    },
    {
      "inputs": [],
      "name": "edgeNodeReward",
      "outputs": [
        {
          "internalType": "uint256",
          "name": "",
          "type": "uint256"
        }
      ],
      "stateMutability": "view",
      "type": "function"
    },
    {
      "inputs": [
        {
          "internalType": "address",
          "name": "",
          "type": "address"
        }
      ],
      "name": "edgeNodes",
      "outputs": [
        {
          "internalType": "bool",
          "name": "isRegistered",
          "type": "bool"
        },
        {
          "internalType": "uint256",
          "name": "earnings",
          "type": "uint256"
        }
      ],
      "stateMutability": "view",
      "type": "function"
    },
    {
      "inputs": [],
      "name": "getVideos",
      "outputs": [
        {
          "components": [
            {
              "internalType": "address",
              "name": "owner",
              "type": "address"
            },
            {
              "internalType": "uint256",
              "name": "price",
              "type": "uint256"
            },
            {
              "internalType": "string",
              "name": "ipfsHash",
              "type": "string"
            }
          ],
          "internalType": "struct VideoCDN.Video[]",
          "name": "",
          "type": "tuple[]"
        }
      ],
      "stateMutability": "view",
      "type": "function"
    },
    {
      "inputs": [
        {
          "internalType": "address",
          "name": "",
          "type": "address"
        },
        {
          "internalType": "uint256",
          "name": "",
          "type": "uint256"
        }
      ],
      "name": "hasAccess",
      "outputs": [
        {
          "internalType": "bool",
          "name": "",
          "type": "bool"
        }
      ],
      "stateMutability": "view",
      "type": "function"
    },
    {
      "inputs": [],
      "name": "registerEdgeNode",
      "outputs": [],
      "stateMutability": "nonpayable",
      "type": "function"
    },
    {
      "inputs": [
        {
          "internalType": "uint256",
          "name": "_reward",
          "type": "uint256"
        }
      ],
      "name": "setEdgeNodeReward",
      "outputs": [],
      "stateMutability": "nonpayable",
      "type": "function"
    },
    {
      "inputs": [
        {
          "internalType": "string",
          "name": "_ipfsHash",
          "type": "string"
        },
        {
          "internalType": "uint256",
          "name": "_price",
          "type": "uint256"
        }
      ],
      "name": "uploadVideo",
      "outputs": [],
      "stateMutability": "nonpayable",
      "type": "function"
    },
    {
      "inputs": [],
      "name": "videoCount",
      "outputs": [
        {
          "internalType": "uint256",
          "name": "",
          "type": "uint256"
        }
      ],
      "stateMutability": "view",
      "type": "function"
    },
    {
      "inputs": [
        {
          "internalType": "uint256",
          "name": "",
          "type": "uint256"
        }
      ],
      "name": "videos",
      "outputs": [
        {
          "internalType": "address",
          "name": "owner",
          "type": "address"
        },
        {
          "internalType": "uint256",
          "name": "price",
          "type": "uint256"
        },
        {
          "internalType": "string",
          "name": "ipfsHash",
          "type": "string"
        }
      ],
      "stateMutability": "view",
      "type": "function"
    },
    {
      "inputs": [],
      "name": "withdrawEarnings",
      "outputs": [],
      "stateMutability": "nonpayable",
      "type": "function"
    }
  ],
  "bytecode": "0x6080604052600a60045534801561001557600080fd5b50611b14806100256000396000f3fe60806040526004361061009b5760003560e01c8063c61b5f4c11610064578063c61b5f4c14610167578063c6530e4114610192578063c905527a146101cf578063d0018def146101f8578063e6821bf51461020f578063f6dd5e711461024e5761009b565b8062d2a1bf146100a057806304c7b6e5146100bc57806368f2d165146100fa578063b73c6ce914610125578063c043ab3a1461013c575b600080fd5b6100ba60048036038101906100b59190610da2565b610277565b005b3480156100c857600080fd5b506100e360048036038101906100de9190610de2565b61062e565b6040516100f1929190610e39565b60405180910390f35b34801561010657600080fd5b5061010f61065f565b60405161011c9190611022565b60405180910390f35b34801561013157600080fd5b5061013a61081f565b005b34801561014857600080fd5b5061015161093b565b60405161015e9190611044565b60405180910390f35b34801561017357600080fd5b5061017c610941565b6040516101899190611044565b60405180910390f35b34801561019e57600080fd5b506101b960048036038101906101b4919061105f565b610947565b6040516101c6919061109f565b60405180910390f35b3480156101db57600080fd5b506101f660048036038101906101f191906110ba565b610976565b005b34801561020457600080fd5b5061020d6109c4565b005b34801561021b57600080fd5b50610236600480360381019061023191906110ba565b610ae7565b60405161024593929190611140565b60405180910390f35b34801561025a57600080fd5b50610275600480360381019061027091906112b3565b610bb9565b005b60008211801561028957506003548211155b6102c8576040517f08c379a00000000000000000000000000000000000000000000000000000000081526004016102bf9061135b565b60405180910390fd5b600080600084815260200190815260200160002090508060010154341015610325576040517f08c379a000000000000000000000000000000000000000000000000000000000815260040161031c906113c7565b60405180910390fd5b600260003373ffffffffffffffffffffffffffffffffffffffff1673ffffffffffffffffffffffffffffffffffffffff168152602001908152602001600020600084815260200190815260200160002060009054906101000a900460ff16156103c3576040517f08c379a00000000000000000000000000000000000000000000000000000000081526004016103ba90611433565b60405180910390fd5b6000606460045483600101546103d99190611482565b6103e391906114f3565b905060008183600101546103f79190611524565b90508260000160009054906101000a900473ffffffffffffffffffffffffffffffffffffffff1673ffffffffffffffffffffffffffffffffffffffff166108fc829081150290604051600060405180830381858888f19350505050158015610463573d6000803e3d6000fd5b50600073ffffffffffffffffffffffffffffffffffffffff168473ffffffffffffffffffffffffffffffffffffffff16141580156104ed5750600160008573ffffffffffffffffffffffffffffffffffffffff1673ffffffffffffffffffffffffffffffffffffffff16815260200190815260200160002060000160009054906101000a900460ff165b156105855781600160008673ffffffffffffffffffffffffffffffffffffffff1673ffffffffffffffffffffffffffffffffffffffff16815260200190815260200160002060010160008282546105449190611558565b925050819055507f04f9bb6617819e3f6de20aad9bb666a3a6536f88e72133dc9e756d4e49829950848360405161057c92919061158c565b60405180910390a15b6001600260003373ffffffffffffffffffffffffffffffffffffffff1673ffffffffffffffffffffffffffffffffffffffff168152602001908152602001600020600087815260200190815260200160002060006101000a81548160ff0219169083151502179055507f32f2dc5c3c0e9eb142bbcc40bd32c434827f83275b105946846a9f05cc69cdb8853360405161061f9291906115b5565b60405180910390a15050505050565b60016020528060005260406000206000915090508060000160009054906101000a900460ff16908060010154905082565b6060600060035467ffffffffffffffff81111561067f5761067e611188565b5b6040519080825280602002602001820160405280156106b857816020015b6106a5610cc3565b81526020019060019003908161069d5790505b5090506000600190505b6003548111610817576000808281526020019081526020016000206040518060600160405290816000820160009054906101000a900473ffffffffffffffffffffffffffffffffffffffff1673ffffffffffffffffffffffffffffffffffffffff1673ffffffffffffffffffffffffffffffffffffffff168152602001600182015481526020016002820180546107589061160d565b80601f01602080910402602001604051908101604052809291908181526020018280546107849061160d565b80156107d15780601f106107a6576101008083540402835291602001916107d1565b820191906000526020600020905b8154815290600101906020018083116107b457829003601f168201915b505050505081525050826001836107e89190611524565b815181106107f9576107f861163e565b5b6020026020010181905250808061080f9061166d565b9150506106c2565b508091505090565b6000600160003373ffffffffffffffffffffffffffffffffffffffff1673ffffffffffffffffffffffffffffffffffffffff168152602001908152602001600020600101549050600081116108a9576040517f08c379a00000000000000000000000000000000000000000000000000000000081526004016108a090611701565b60405180910390fd5b6000600160003373ffffffffffffffffffffffffffffffffffffffff1673ffffffffffffffffffffffffffffffffffffffff168152602001908152602001600020600101819055503373ffffffffffffffffffffffffffffffffffffffff166108fc829081150290604051600060405180830381858888f19350505050158015610937573d6000803e3d6000fd5b5050565b60045481565b60035481565b60026020528160005260406000206020528060005260406000206000915091509054906101000a900460ff1681565b60328111156109ba576040517f08c379a00000000000000000000000000000000000000000000000000000000081526004016109b19061176d565b60405180910390fd5b8060048190555050565b600160003373ffffffffffffffffffffffffffffffffffffffff1673ffffffffffffffffffffffffffffffffffffffff16815260200190815260200160002060000160009054906101000a900460ff1615610a54576040517f08c379a0000000000000000000000000000000000000000000000000000000008152600401610a4b906117d9565b60405180910390fd5b60018060003373ffffffffffffffffffffffffffffffffffffffff1673ffffffffffffffffffffffffffffffffffffffff16815260200190815260200160002060000160006101000a81548160ff0219169083151502179055507f5f09030b268bdcff0650d1d508db6a40b4886452a0da0f42af07f88ed0e1135133604051610add91906117f9565b60405180910390a1565b60006020528060005260406000206000915090508060000160009054906101000a900473ffffffffffffffffffffffffffffffffffffffff1690806001015490806002018054610b369061160d565b80601f0160208091040260200160405190810160405280929190818152602001828054610b629061160d565b8015610baf5780601f10610b8457610100808354040283529160200191610baf565b820191906000526020600020905b815481529060010190602001808311610b9257829003601f168201915b5050505050905083565b60036000815480929190610bcc9061166d565b919050555060405180606001604052803373ffffffffffffffffffffffffffffffffffffffff16815260200182815260200183815250600080600354815260200190815260200160002060008201518160000160006101000a81548173ffffffffffffffffffffffffffffffffffffffff021916908373ffffffffffffffffffffffffffffffffffffffff160217905550602082015181600101556040820151816002019081610c7c91906119c0565b509050507f2bec37801fc5fd7683d5f119d3893073ca167a06e8fc68c931bb4552124804e1600354338484604051610cb79493929190611a92565b60405180910390a15050565b6040518060600160405280600073ffffffffffffffffffffffffffffffffffffffff16815260200160008152602001606081525090565b6000604051905090565b600080fd5b600080fd5b6000819050919050565b610d2181610d0e565b8114610d2c57600080fd5b50565b600081359050610d3e81610d18565b92915050565b600073ffffffffffffffffffffffffffffffffffffffff82169050919050565b6000610d6f82610d44565b9050919050565b610d7f81610d64565b8114610d8a57600080fd5b50565b600081359050610d9c81610d76565b92915050565b60008060408385031215610db957610db8610d04565b5b6000610dc785828601610d2f565b9250506020610dd885828601610d8d565b9150509250929050565b600060208284031215610df857610df7610d04565b5b6000610e0684828501610d8d565b91505092915050565b60008115159050919050565b610e2481610e0f565b82525050565b610e3381610d0e565b82525050565b6000604082019050610e4e6000830185610e1b565b610e5b6020830184610e2a565b9392505050565b600081519050919050565b600082825260208201905092915050565b6000819050602082019050919050565b610e9781610d64565b82525050565b610ea681610d0e565b82525050565b600081519050919050565b600082825260208201905092915050565b60005b83811015610ee6578082015181840152602081019050610ecb565b60008484015250505050565b6000601f19601f8301169050919050565b6000610f0e82610eac565b610f188185610eb7565b9350610f28818560208601610ec8565b610f3181610ef2565b840191505092915050565b6000606083016000830151610f546000860182610e8e565b506020830151610f676020860182610e9d565b5060408301518482036040860152610f7f8282610f03565b9150508091505092915050565b6000610f988383610f3c565b905092915050565b6000602082019050919050565b6000610fb882610e62565b610fc28185610e6d565b935083602082028501610fd485610e7e565b8060005b858110156110105784840389528151610ff18582610f8c565b9450610ffc83610fa0565b925060208a01995050600181019050610fd8565b50829750879550505050505092915050565b6000602082019050818103600083015261103c8184610fad565b905092915050565b60006020820190506110596000830184610e2a565b92915050565b6000806040838503121561107657611075610d04565b5b600061108485828601610d8d565b925050602061109585828601610d2f565b9150509250929050565b60006020820190506110b46000830184610e1b565b92915050565b6000602082840312156110d0576110cf610d04565b5b60006110de84828501610d2f565b91505092915050565b6110f081610d64565b82525050565b600082825260208201905092915050565b600061111282610eac565b61111c81856110f6565b935061112c818560208601610ec8565b61113581610ef2565b840191505092915050565b600060608201905061115560008301866110e7565b6111626020830185610e2a565b81810360408301526111748184611107565b9050949350505050565b600080fd5b600080fd5b7f4e487b7100000000000000000000000000000000000000000000000000000000600052604160045260246000fd5b6111c082610ef2565b810181811067ffffffffffffffff821117156111df576111de611188565b5b80604052505050565b60006111f2610cfa565b90506111fe82826111b7565b919050565b600067ffffffffffffffff82111561121e5761121d611188565b5b61122782610ef2565b9050602081019050919050565b82818337600083830152505050565b600061125661125184611203565b6111e8565b90508281526020810184848401111561127257611271611183565b5b61127d848285611234565b509392505050565b600082601f83011261129a5761129961117e565b5b81356112aa848260208601611243565b91505092915050565b600080604083850312156112ca576112c9610d04565b5b600083013567ffffffffffffffff8111156112e8576112e7610d09565b5b6112f485828601611285565b925050602061130585828601610d2f565b9150509250929050565b7f496e76616c696420766964656f20494400000000000000000000000000000000600082015250565b60006113456010836110f6565b91506113508261130f565b602082019050919050565b6000602082019050818103600083015261137481611338565b9050919050565b7f496e73756666696369656e74207061796d656e74000000000000000000000000600082015250565b60006113b16014836110f6565b91506113bc8261137b565b602082019050919050565b600060208201905081810360008301526113e0816113a4565b9050919050565b7f416c726561647920707572636861736564000000000000000000000000000000600082015250565b600061141d6011836110f6565b9150611428826113e7565b602082019050919050565b6000602082019050818103600083015261144c81611410565b9050919050565b7f4e487b7100000000000000000000000000000000000000000000000000000000600052601160045260246000fd5b600061148d82610d0e565b915061149883610d0e565b92508282026114a681610d0e565b915082820484148315176114bd576114bc611453565b5b5092915050565b7f4e487b7100000000000000000000000000000000000000000000000000000000600052601260045260246000fd5b60006114fe82610d0e565b915061150983610d0e565b925082611519576115186114c4565b5b828204905092915050565b600061152f82610d0e565b915061153a83610d0e565b925082820390508181111561155257611551611453565b5b92915050565b600061156382610d0e565b915061156e83610d0e565b925082820190508082111561158657611585611453565b5b92915050565b60006040820190506115a160008301856110e7565b6115ae6020830184610e2a565b9392505050565b60006040820190506115ca6000830185610e2a565b6115d760208301846110e7565b9392505050565b7f4e487b7100000000000000000000000000000000000000000000000000000000600052602260045260246000fd5b6000600282049050600182168061162557607f821691505b602082108103611638576116376115de565b5b50919050565b7f4e487b7100000000000000000000000000000000000000000000000000000000600052603260045260246000fd5b600061167882610d0e565b91507fffffffffffffffffffffffffffffffffffffffffffffffffffffffffffffffff82036116aa576116a9611453565b5b600182019050919050565b7f4e6f206561726e696e677320746f207769746864726177000000000000000000600082015250565b60006116eb6017836110f6565b91506116f6826116b5565b602082019050919050565b6000602082019050818103600083015261171a816116de565b9050919050565b7f546f6f2068696768207265776172640000000000000000000000000000000000600082015250565b6000611757600f836110f6565b915061176282611721565b602082019050919050565b600060208201905081810360008301526117868161174a565b9050919050565b7f416c726561647920726567697374657265640000000000000000000000000000600082015250565b60006117c36012836110f6565b91506117ce8261178d565b602082019050919050565b600060208201905081810360008301526117f2816117b6565b9050919050565b600060208201905061180e60008301846110e7565b92915050565b60008190508160005260206000209050919050565b60006020601f8301049050919050565b600082821b905092915050565b6000600883026118767fffffffffffffffffffffffffffffffffffffffffffffffffffffffffffffffff82611839565b6118808683611839565b95508019841693508086168417925050509392505050565b6000819050919050565b60006118bd6118b86118b384610d0e565b611898565b610d0e565b9050919050565b6000819050919050565b6118d7836118a2565b6118eb6118e3826118c4565b848454611846565b825550505050565b600090565b6119006118f3565b61190b8184846118ce565b505050565b5b8181101561192f576119246000826118f8565b600181019050611911565b5050565b601f8211156119745761194581611814565b61194e84611829565b8101602085101561195d578190505b61197161196985611829565b830182611910565b50505b505050565b600082821c905092915050565b600061199760001984600802611979565b1980831691505092915050565b60006119b08383611986565b9150826002028217905092915050565b6119c982610eac565b67ffffffffffffffff8111156119e2576119e1611188565b5b6119ec825461160d565b6119f7828285611933565b600060209050601f831160018114611a2a5760008415611a18578287015190505b611a2285826119a4565b865550611a8a565b601f198416611a3886611814565b60005b82811015611a6057848901518255600182019150602085019450602081019050611a3b565b86831015611a7d5784890151611a79601f891682611986565b8355505b6001600288020188555050505b505050505050565b6000608082019050611aa76000830187610e2a565b611ab460208301866110e7565b8181036040830152611ac68185611107565b9050611ad56060830184610e2a565b9594505050505056fea26469706673582212201e3bad820c52f692270d797cd530e62b408f388ce7d286388e04b283d2b7ec8764736f6c63430008140033",
  "linkReferences": {},
  "deployedLinkReferences": {}
}